{
  "contractName": "FlipCoin",
  "abi": [
    {
      "inputs": [],
      "payable": false,
      "stateMutability": "nonpayable",
      "type": "constructor"
    },
    {
      "anonymous": false,
      "inputs": [
        {
          "indexed": false,
          "internalType": "bool",
          "name": "",
          "type": "bool"
        }
      ],
      "name": "getResult",
      "type": "event"
    },
    {
      "constant": true,
      "inputs": [],
      "name": "gameAddress",
      "outputs": [
        {
          "internalType": "address",
          "name": "",
          "type": "address"
        }
      ],
      "payable": false,
      "stateMutability": "view",
      "type": "function"
    },
    {
      "constant": true,
      "inputs": [],
      "name": "gameBalance",
      "outputs": [
        {
          "internalType": "uint256",
          "name": "",
          "type": "uint256"
        }
      ],
      "payable": false,
      "stateMutability": "view",
      "type": "function"
    },
    {
      "constant": true,
      "inputs": [],
      "name": "owner",
      "outputs": [
        {
          "internalType": "address",
          "name": "",
          "type": "address"
        }
      ],
      "payable": false,
      "stateMutability": "view",
      "type": "function"
    },
    {
      "constant": false,
      "inputs": [],
      "name": "deposit",
      "outputs": [
        {
          "internalType": "uint256",
          "name": "",
          "type": "uint256"
        }
      ],
      "payable": true,
      "stateMutability": "payable",
      "type": "function"
    },
    {
      "constant": false,
      "inputs": [],
      "name": "flipIt",
      "outputs": [
        {
          "internalType": "bool",
          "name": "",
          "type": "bool"
        }
      ],
      "payable": true,
      "stateMutability": "payable",
      "type": "function"
    },
    {
      "constant": true,
      "inputs": [],
      "name": "getUserBalance",
      "outputs": [
        {
          "internalType": "uint256",
          "name": "",
          "type": "uint256"
        }
      ],
      "payable": false,
      "stateMutability": "view",
      "type": "function"
    },
    {
      "constant": true,
      "inputs": [],
      "name": "getGameBalance",
      "outputs": [
        {
          "internalType": "uint256",
          "name": "",
          "type": "uint256"
        }
      ],
      "payable": false,
      "stateMutability": "view",
      "type": "function"
    },
    {
      "constant": false,
      "inputs": [],
      "name": "withdrawAll",
      "outputs": [
        {
          "internalType": "uint256",
          "name": "",
          "type": "uint256"
        }
      ],
      "payable": false,
      "stateMutability": "nonpayable",
      "type": "function"
    }
  ],
  "bytecode": "0x6080604052606460005534801561001557600080fd5b5033600360006101000a81548173ffffffffffffffffffffffffffffffffffffffff021916908373ffffffffffffffffffffffffffffffffffffffff160217905550610835806100666000396000f3fe60806040526004361061007b5760003560e01c8063a168d8731161004e578063a168d8731461014f578063b7013dc1146101a6578063c574d156146101d1578063d0e30db0146101fc5761007b565b80630cbb5eea14610080578063853828b6146100a25780638da5cb5b146100cd578063a108b66414610124575b600080fd5b61008861021a565b604051808215151515815260200191505060405180910390f35b3480156100ae57600080fd5b506100b76104b3565b6040518082815260200191505060405180910390f35b3480156100d957600080fd5b506100e2610640565b604051808273ffffffffffffffffffffffffffffffffffffffff1673ffffffffffffffffffffffffffffffffffffffff16815260200191505060405180910390f35b34801561013057600080fd5b50610139610666565b6040518082815260200191505060405180910390f35b34801561015b57600080fd5b5061016461066c565b604051808273ffffffffffffffffffffffffffffffffffffffff1673ffffffffffffffffffffffffffffffffffffffff16815260200191505060405180910390f35b3480156101b257600080fd5b506101bb610692565b6040518082815260200191505060405180910390f35b3480156101dd57600080fd5b506101e66106d9565b6040518082815260200191505060405180910390f35b610204610742565b6040518082815260200191505060405180910390f35b6000662386f26fc100008034101561029a576040517f08c379a000000000000000000000000000000000000000000000000000000000815260040180806020018281038252601c8152602001807f4d696e696d756d20616d6f756e74203e3d20302e30312065746865720000000081525060200191505060405180910390fd5b34600260003373ffffffffffffffffffffffffffffffffffffffff1673ffffffffffffffffffffffffffffffffffffffff168152602001908152602001600020541015610332576040517f08c379a000000000000000000000000000000000000000000000000000000000815260040180806020018281038252602a8152602001806107d7602a913960400191505060405180910390fd5b6000806002428161033f57fe5b06905060008114156103a45734600202600260003373ffffffffffffffffffffffffffffffffffffffff1673ffffffffffffffffffffffffffffffffffffffff168152602001908152602001600020600082825401925050819055506001915061046f565b600181141561046e573460026000600160009054906101000a900473ffffffffffffffffffffffffffffffffffffffff1673ffffffffffffffffffffffffffffffffffffffff1673ffffffffffffffffffffffffffffffffffffffff1681526020019081526020016000206000828254019250508190555034600260003373ffffffffffffffffffffffffffffffffffffffff1673ffffffffffffffffffffffffffffffffffffffff16815260200190815260200160002060008282540392505081905550600091505b5b7ffb5875b0e6587365913930159e5f0b19310d978e9ed0dcc77526cf9e5b225c0d82604051808215151515815260200191505060405180910390a181935050505090565b6000600360009054906101000a900473ffffffffffffffffffffffffffffffffffffffff1673ffffffffffffffffffffffffffffffffffffffff163373ffffffffffffffffffffffffffffffffffffffff161461050f57600080fd5b3373ffffffffffffffffffffffffffffffffffffffff166108fc600260003373ffffffffffffffffffffffffffffffffffffffff1673ffffffffffffffffffffffffffffffffffffffff168152602001908152602001600020549081150290604051600060405180830381858888f19350505050158015610594573d6000803e3d6000fd5b506000600260003373ffffffffffffffffffffffffffffffffffffffff1673ffffffffffffffffffffffffffffffffffffffff168152602001908152602001600020819055506000600260003373ffffffffffffffffffffffffffffffffffffffff1673ffffffffffffffffffffffffffffffffffffffff168152602001908152602001600020541461062357fe5b3073ffffffffffffffffffffffffffffffffffffffff1631905090565b600360009054906101000a900473ffffffffffffffffffffffffffffffffffffffff1681565b60005481565b600160009054906101000a900473ffffffffffffffffffffffffffffffffffffffff1681565b6000600260003373ffffffffffffffffffffffffffffffffffffffff1673ffffffffffffffffffffffffffffffffffffffff16815260200190815260200160002054905090565b600060026000600160009054906101000a900473ffffffffffffffffffffffffffffffffffffffff1673ffffffffffffffffffffffffffffffffffffffff1673ffffffffffffffffffffffffffffffffffffffff16815260200190815260200160002054905090565b600034600260003373ffffffffffffffffffffffffffffffffffffffff1673ffffffffffffffffffffffffffffffffffffffff16815260200190815260200160002060008282540192505081905550600260003373ffffffffffffffffffffffffffffffffffffffff1673ffffffffffffffffffffffffffffffffffffffff1681526020019081526020016000205490509056fe54686520757365722073686f756c64206465706f73697420736f6d6520206d6f6e657920666972737421a265627a7a72315820a03381825c637be0176118996d0e148c5f0bf0fc35b3e3fd59c5bef2e6605d3464736f6c634300050c0032",
  "source": "pragma solidity 0.5.12;\n\ncontract FlipCoin{\n   \n    uint public gameBalance = 100;\n    address public gameAddress;\n    mapping(address => uint) balance;\n  modifier costs(uint cost) {\n        require(msg.value >= cost, \"Minimum amount >= 0.01 ether\");\n        _;\n    }\n     address public owner;\n\n    modifier onlyOwner(){\n        require(msg.sender == owner);\n        _; //Continue execution\n    }\n\n    constructor() public{\n        owner = msg.sender;\n    }\n    event getResult(bool);\n     function deposit() public payable returns (uint)  {\n        balance[msg.sender] += msg.value;\n        return balance[msg.sender];\n    }\n\nfunction flipIt() public payable costs (0.01 ether) returns(bool) {\n    require(balance[msg.sender] >= msg.value, \"The user should deposit some  money first!\");\n    // 0 is tails, 1 is heads\n    bool win;\n    uint num = now % 2;\n    //win\n    if (num == 0){\n       balance[msg.sender] += 2*msg.value;\n        win = true;\n    // lose\n    }else if (num == 1){\n      balance[gameAddress] += msg.value;\n      balance[msg.sender] -= msg.value;\n        win = false;\n        \n    }\n    emit getResult(win);\n    return win;\n}\n \nfunction getUserBalance() public view returns (uint) {\n    return balance[msg.sender];   \n}\nfunction getGameBalance() public view returns(uint) {\n    return balance[gameAddress];   \n}\n function withdrawAll() public  onlyOwner returns(uint){\n        msg.sender.transfer(balance[msg.sender]);\n        balance[msg.sender] = 0;\n        assert(balance[msg.sender] == 0);\n        return address(this).balance;\n    }\n\nfunction playerWin(address _recipient, uint _amount) private{\n    // increase player balanec with double amount.\n    // decrease game balance with amount.\n\n}\nfunction playerLose(address _recipient, uint _amount) private{\n    // decrease player balance with the amount.\n    // increase game balance with amount.\n  \n}\n\n}\n",
  "sourcePath": "/Users/peshangalo/Documents/Bachelor/Ivan of Tech/CoinFlipContract/contracts/FlipCoin.sol",
  "compiler": {
    "name": "solc",
    "version": "0.5.12+commit.7709ece9.Emscripten.clang"
  },
  "schemaVersion": "3.0.16",
  "updatedAt": "2021-02-19T09:35:59.094Z",
  "devdoc": {
    "methods": {}
  },
  "userdoc": {
    "methods": {}
  }
}